{
  "_format": "hh-sol-artifact-1",
  "contractName": "ACToken",
  "sourceName": "contracts/Decommerce.sol",
  "abi": [
    {
      "inputs": [],
      "stateMutability": "nonpayable",
      "type": "constructor"
    },
    {
      "anonymous": false,
      "inputs": [
        {
          "indexed": true,
          "internalType": "address",
          "name": "owner",
          "type": "address"
        },
        {
          "indexed": true,
          "internalType": "address",
          "name": "spender",
          "type": "address"
        },
        {
          "indexed": false,
          "internalType": "uint256",
          "name": "value",
          "type": "uint256"
        }
      ],
      "name": "Approval",
      "type": "event"
    },
    {
      "anonymous": false,
      "inputs": [
        {
          "indexed": true,
          "internalType": "uint256",
          "name": "assetId",
          "type": "uint256"
        },
        {
          "indexed": true,
          "internalType": "address",
          "name": "buyer",
          "type": "address"
        },
        {
          "indexed": true,
          "internalType": "address",
          "name": "seller",
          "type": "address"
        },
        {
          "indexed": false,
          "internalType": "uint256",
          "name": "price",
          "type": "uint256"
        }
      ],
      "name": "AssetBought",
      "type": "event"
    },
    {
      "anonymous": false,
      "inputs": [
        {
          "indexed": true,
          "internalType": "uint256",
          "name": "assetId",
          "type": "uint256"
        },
        {
          "indexed": true,
          "internalType": "address",
          "name": "owner",
          "type": "address"
        }
      ],
      "name": "AssetCreated",
      "type": "event"
    },
    {
      "anonymous": false,
      "inputs": [
        {
          "indexed": true,
          "internalType": "uint256",
          "name": "assetId",
          "type": "uint256"
        },
        {
          "indexed": true,
          "internalType": "address",
          "name": "seller",
          "type": "address"
        },
        {
          "indexed": false,
          "internalType": "uint256",
          "name": "price",
          "type": "uint256"
        }
      ],
      "name": "AssetSold",
      "type": "event"
    },
    {
      "anonymous": false,
      "inputs": [
        {
          "indexed": true,
          "internalType": "address",
          "name": "previousOwner",
          "type": "address"
        },
        {
          "indexed": true,
          "internalType": "address",
          "name": "newOwner",
          "type": "address"
        }
      ],
      "name": "OwnershipTransferred",
      "type": "event"
    },
    {
      "anonymous": false,
      "inputs": [
        {
          "indexed": true,
          "internalType": "address",
          "name": "account",
          "type": "address"
        },
        {
          "indexed": false,
          "internalType": "uint256",
          "name": "amount",
          "type": "uint256"
        }
      ],
      "name": "TokensMinted",
      "type": "event"
    },
    {
      "anonymous": false,
      "inputs": [
        {
          "indexed": true,
          "internalType": "address",
          "name": "buyer",
          "type": "address"
        },
        {
          "indexed": false,
          "internalType": "uint256",
          "name": "amount",
          "type": "uint256"
        }
      ],
      "name": "TokensPurchased",
      "type": "event"
    },
    {
      "anonymous": false,
      "inputs": [
        {
          "indexed": true,
          "internalType": "address",
          "name": "from",
          "type": "address"
        },
        {
          "indexed": true,
          "internalType": "address",
          "name": "to",
          "type": "address"
        },
        {
          "indexed": false,
          "internalType": "uint256",
          "name": "value",
          "type": "uint256"
        }
      ],
      "name": "Transfer",
      "type": "event"
    },
    {
      "inputs": [
        {
          "internalType": "address",
          "name": "owner",
          "type": "address"
        },
        {
          "internalType": "address",
          "name": "spender",
          "type": "address"
        }
      ],
      "name": "allowance",
      "outputs": [
        {
          "internalType": "uint256",
          "name": "",
          "type": "uint256"
        }
      ],
      "stateMutability": "view",
      "type": "function"
    },
    {
      "inputs": [
        {
          "internalType": "address",
          "name": "spender",
          "type": "address"
        },
        {
          "internalType": "uint256",
          "name": "amount",
          "type": "uint256"
        }
      ],
      "name": "approve",
      "outputs": [
        {
          "internalType": "bool",
          "name": "",
          "type": "bool"
        }
      ],
      "stateMutability": "nonpayable",
      "type": "function"
    },
    {
      "inputs": [],
      "name": "assetCounter",
      "outputs": [
        {
          "internalType": "uint256",
          "name": "",
          "type": "uint256"
        }
      ],
      "stateMutability": "view",
      "type": "function"
    },
    {
      "inputs": [
        {
          "internalType": "uint256",
          "name": "",
          "type": "uint256"
        }
      ],
      "name": "assetOwners",
      "outputs": [
        {
          "internalType": "address",
          "name": "",
          "type": "address"
        }
      ],
      "stateMutability": "view",
      "type": "function"
    },
    {
      "inputs": [
        {
          "internalType": "uint256",
          "name": "",
          "type": "uint256"
        }
      ],
      "name": "assetPrices",
      "outputs": [
        {
          "internalType": "uint256",
          "name": "",
          "type": "uint256"
        }
      ],
      "stateMutability": "view",
      "type": "function"
    },
    {
      "inputs": [
        {
          "internalType": "address",
          "name": "account",
          "type": "address"
        }
      ],
      "name": "balanceOf",
      "outputs": [
        {
          "internalType": "uint256",
          "name": "",
          "type": "uint256"
        }
      ],
      "stateMutability": "view",
      "type": "function"
    },
    {
      "inputs": [
        {
          "internalType": "uint256",
          "name": "_assetId",
          "type": "uint256"
        }
      ],
      "name": "buyAsset",
      "outputs": [],
      "stateMutability": "nonpayable",
      "type": "function"
    },
    {
      "inputs": [
        {
          "internalType": "uint256",
          "name": "_price",
          "type": "uint256"
        }
      ],
      "name": "createAsset",
      "outputs": [],
      "stateMutability": "nonpayable",
      "type": "function"
    },
    {
      "inputs": [],
      "name": "decimals",
      "outputs": [
        {
          "internalType": "uint8",
          "name": "",
          "type": "uint8"
        }
      ],
      "stateMutability": "view",
      "type": "function"
    },
    {
      "inputs": [
        {
          "internalType": "address",
          "name": "spender",
          "type": "address"
        },
        {
          "internalType": "uint256",
          "name": "subtractedValue",
          "type": "uint256"
        }
      ],
      "name": "decreaseAllowance",
      "outputs": [
        {
          "internalType": "bool",
          "name": "",
          "type": "bool"
        }
      ],
      "stateMutability": "nonpayable",
      "type": "function"
    },
    {
      "inputs": [
        {
          "internalType": "address",
          "name": "account",
          "type": "address"
        }
      ],
      "name": "getBalance",
      "outputs": [
        {
          "internalType": "uint256",
          "name": "",
          "type": "uint256"
        }
      ],
      "stateMutability": "view",
      "type": "function"
    },
    {
      "inputs": [
        {
          "internalType": "address",
          "name": "spender",
          "type": "address"
        },
        {
          "internalType": "uint256",
          "name": "addedValue",
          "type": "uint256"
        }
      ],
      "name": "increaseAllowance",
      "outputs": [
        {
          "internalType": "bool",
          "name": "",
          "type": "bool"
        }
      ],
      "stateMutability": "nonpayable",
      "type": "function"
    },
    {
      "inputs": [
        {
          "internalType": "address",
          "name": "account",
          "type": "address"
        },
        {
          "internalType": "uint256",
          "name": "amount",
          "type": "uint256"
        }
      ],
      "name": "mint",
      "outputs": [],
      "stateMutability": "nonpayable",
      "type": "function"
    },
    {
      "inputs": [],
      "name": "name",
      "outputs": [
        {
          "internalType": "string",
          "name": "",
          "type": "string"
        }
      ],
      "stateMutability": "view",
      "type": "function"
    },
    {
      "inputs": [],
      "name": "owner",
      "outputs": [
        {
          "internalType": "address",
          "name": "",
          "type": "address"
        }
      ],
      "stateMutability": "view",
      "type": "function"
    },
    {
      "inputs": [],
      "name": "purchaseTokens",
      "outputs": [],
      "stateMutability": "payable",
      "type": "function"
    },
    {
      "inputs": [],
      "name": "renounceOwnership",
      "outputs": [],
      "stateMutability": "nonpayable",
      "type": "function"
    },
    {
      "inputs": [
        {
          "internalType": "uint256",
          "name": "_assetId",
          "type": "uint256"
        },
        {
          "internalType": "uint256",
          "name": "_price",
          "type": "uint256"
        }
      ],
      "name": "sellAsset",
      "outputs": [],
      "stateMutability": "nonpayable",
      "type": "function"
    },
    {
      "inputs": [],
      "name": "symbol",
      "outputs": [
        {
          "internalType": "string",
          "name": "",
          "type": "string"
        }
      ],
      "stateMutability": "view",
      "type": "function"
    },
    {
      "inputs": [],
      "name": "totalSupply",
      "outputs": [
        {
          "internalType": "uint256",
          "name": "",
          "type": "uint256"
        }
      ],
      "stateMutability": "view",
      "type": "function"
    },
    {
      "inputs": [
        {
          "internalType": "address",
          "name": "to",
          "type": "address"
        },
        {
          "internalType": "uint256",
          "name": "amount",
          "type": "uint256"
        }
      ],
      "name": "transfer",
      "outputs": [
        {
          "internalType": "bool",
          "name": "",
          "type": "bool"
        }
      ],
      "stateMutability": "nonpayable",
      "type": "function"
    },
    {
      "inputs": [
        {
          "internalType": "address",
          "name": "from",
          "type": "address"
        },
        {
          "internalType": "address",
          "name": "to",
          "type": "address"
        },
        {
          "internalType": "uint256",
          "name": "amount",
          "type": "uint256"
        }
      ],
      "name": "transferFrom",
      "outputs": [
        {
          "internalType": "bool",
          "name": "",
          "type": "bool"
        }
      ],
      "stateMutability": "nonpayable",
      "type": "function"
    },
    {
      "inputs": [
        {
          "internalType": "address",
          "name": "newOwner",
          "type": "address"
        }
      ],
      "name": "transferOwnership",
      "outputs": [],
      "stateMutability": "nonpayable",
      "type": "function"
    }
  ],
  "bytecode": "0x60806040523480156200001157600080fd5b506040518060400160405280600881526020016720a1902a37b5b2b760c11b815250604051806040016040528060038152602001621050d560ea1b815250816003908162000060919062000194565b5060046200006f828262000194565b5050506200008c620000866200009760201b60201c565b6200009b565b600160065562000260565b3390565b600580546001600160a01b038381166001600160a01b0319831681179093556040519116919082907f8be0079c531659141344cd1fd0a4f28419497f9722a3daafe3b4186f6b6457e090600090a35050565b634e487b7160e01b600052604160045260246000fd5b600181811c908216806200011857607f821691505b6020821081036200013957634e487b7160e01b600052602260045260246000fd5b50919050565b601f8211156200018f576000816000526020600020601f850160051c810160208610156200016a5750805b601f850160051c820191505b818110156200018b5782815560010162000176565b5050505b505050565b81516001600160401b03811115620001b057620001b0620000ed565b620001c881620001c1845462000103565b846200013f565b602080601f831160018114620002005760008415620001e75750858301515b600019600386901b1c1916600185901b1785556200018b565b600085815260208120601f198616915b82811015620002315788860151825594840194600190910190840162000210565b5085821015620002505787850151600019600388901b60f8161c191681555b5050505050600190811b01905550565b6112c180620002706000396000f3fe6080604052600436106101405760003560e01c80636999f843116100b6578063a872d3b61161006f578063a872d3b614610394578063a9059cbb146103b4578063bbc263fa146103d4578063dd62ed3e146103f4578063f2fde38b14610414578063f8b2cb4f1461043457600080fd5b80636999f843146102a857806370a08231146102f6578063715018a61461032c5780638da5cb5b1461034157806395d89b411461035f578063a457c2d71461037457600080fd5b8063313ce56711610108578063313ce567146102015780633290ce291461021d578063395093511461022557806340c10f19146102455780634191c45b146102655780634b9187861461029257600080fd5b806306fdde0314610145578063095ea7b314610170578063110d35b8146101a057806318160ddd146101c257806323b872dd146101e1575b600080fd5b34801561015157600080fd5b5061015a610454565b604051610167919061108c565b60405180910390f35b34801561017c57600080fd5b5061019061018b3660046110f7565b6104e6565b6040519015158152602001610167565b3480156101ac57600080fd5b506101c06101bb366004611121565b610500565b005b3480156101ce57600080fd5b506002545b604051908152602001610167565b3480156101ed57600080fd5b506101906101fc36600461113a565b6106aa565b34801561020d57600080fd5b5060405160128152602001610167565b6101c06106ce565b34801561023157600080fd5b506101906102403660046110f7565b6107cf565b34801561025157600080fd5b506101c06102603660046110f7565b6107f1565b34801561027157600080fd5b506101d3610280366004611121565b60086020526000908152604090205481565b34801561029e57600080fd5b506101d360095481565b3480156102b457600080fd5b506102de6102c3366004611121565b6007602052600090815260409020546001600160a01b031681565b6040516001600160a01b039091168152602001610167565b34801561030257600080fd5b506101d3610311366004611176565b6001600160a01b031660009081526020819052604090205490565b34801561033857600080fd5b506101c061084a565b34801561034d57600080fd5b506005546001600160a01b03166102de565b34801561036b57600080fd5b5061015a61085e565b34801561038057600080fd5b5061019061038f3660046110f7565b61086d565b3480156103a057600080fd5b506101c06103af366004611121565b6108e8565b3480156103c057600080fd5b506101906103cf3660046110f7565b6109b1565b3480156103e057600080fd5b506101c06103ef366004611198565b6109bf565b34801561040057600080fd5b506101d361040f3660046111ba565b610ad2565b34801561042057600080fd5b506101c061042f366004611176565b610afd565b34801561044057600080fd5b506101d361044f366004611176565b610b73565b606060038054610463906111ed565b80601f016020809104026020016040519081016040528092919081815260200182805461048f906111ed565b80156104dc5780601f106104b1576101008083540402835291602001916104dc565b820191906000526020600020905b8154815290600101906020018083116104bf57829003601f168201915b5050505050905090565b6000336104f4818585610b91565b60019150505b92915050565b610508610cb5565b6000818152600760205260409020546001600160a01b03163381036105745760405162461bcd60e51b815260206004820152601960248201527f43616e6e6f742062757920796f7572206f776e2061737365740000000000000060448201526064015b60405180910390fd5b6001600160a01b0381166105c15760405162461bcd60e51b8152602060048201526014602482015273105cdcd95d08191bd95cc81b9bdd08195e1a5cdd60621b604482015260640161056b565b60008281526008602090815260408083205433845291839052909120548111156106265760405162461bcd60e51b8152602060048201526016602482015275496e73756666696369656e7420414320746f6b656e7360501b604482015260640161056b565b610631338383610d0e565b6000838152600760205260409081902080546001600160a01b0319163390811790915590516001600160a01b038416919085907fa918371046fc34d21cf724eca4ec09f4d413c372206dbbc5e836bfdef5985243906106939086815260200190565b60405180910390a450506106a76001600655565b50565b6000336106b8858285610eb4565b6106c3858585610d0e565b506001949350505050565b6000341161071e5760405162461bcd60e51b815260206004820152601960248201527f53656e642045544820746f2067657420414320546f6b656e7300000000000000604482015260640161056b565b600061073166038d7ea4c680003461123d565b90506000811161078d5760405162461bcd60e51b815260206004820152602160248201527f4e6f7420656e6f756768204554482073656e7420746f2062757920746f6b656e6044820152607360f81b606482015260840161056b565b6107973382610f28565b60405181815233907f8f28852646c20cc973d3a8218f7eefed58c25c909f78f0265af4818c3d4dc2719060200160405180910390a250565b6000336104f48185856107e28383610ad2565b6107ec919061125f565b610b91565b6107f9610fe0565b6108038282610f28565b816001600160a01b03167f3f2c9d57c068687834f0de942a9babb9e5acab57d516d3480a3c16ee165a42738260405161083e91815260200190565b60405180910390a25050565b610852610fe0565b61085c600061103a565b565b606060048054610463906111ed565b6000338161087b8286610ad2565b9050838110156108db5760405162461bcd60e51b815260206004820152602560248201527f45524332303a2064656372656173656420616c6c6f77616e63652062656c6f77604482015264207a65726f60d81b606482015260840161056b565b6106c38286868403610b91565b600081116109385760405162461bcd60e51b815260206004820152601f60248201527f5072696365206d7573742062652067726561746572207468616e207a65726f00604482015260640161056b565b6009805490600061094883611272565b909155505060098054600090815260076020908152604080832080546001600160a01b03191633908117909155845484526008909252808320859055925492519092917f43fa39346cffee57377dce4ce74cc638ce7a2f04f6ffbd6512842321b3abd98c91a350565b6000336104f4818585610d0e565b6000828152600760205260409020546001600160a01b03163314610a2f5760405162461bcd60e51b815260206004820152602160248201527f4f6e6c7920746865206f776e65722063616e2073656c6c2074686520617373656044820152601d60fa1b606482015260840161056b565b60008111610a7f5760405162461bcd60e51b815260206004820152601f60248201527f5072696365206d7573742062652067726561746572207468616e207a65726f00604482015260640161056b565b6000828152600860205260409081902082905551339083907f292a715744610be2d2c003ffa789368466ca91526353f24503687fb495dca86990610ac69085815260200190565b60405180910390a35050565b6001600160a01b03918216600090815260016020908152604080832093909416825291909152205490565b610b05610fe0565b6001600160a01b038116610b6a5760405162461bcd60e51b815260206004820152602660248201527f4f776e61626c653a206e6577206f776e657220697320746865207a65726f206160448201526564647265737360d01b606482015260840161056b565b6106a78161103a565b6001600160a01b0381166000908152602081905260408120546104fa565b6001600160a01b038316610bf35760405162461bcd60e51b8152602060048201526024808201527f45524332303a20617070726f76652066726f6d20746865207a65726f206164646044820152637265737360e01b606482015260840161056b565b6001600160a01b038216610c545760405162461bcd60e51b815260206004820152602260248201527f45524332303a20617070726f766520746f20746865207a65726f206164647265604482015261737360f01b606482015260840161056b565b6001600160a01b0383811660008181526001602090815260408083209487168084529482529182902085905590518481527f8c5be1e5ebec7d5bd14f71427d1e84f3dd0314c0f7b2291e5b200ac8c7c3b925910160405180910390a3505050565b600260065403610d075760405162461bcd60e51b815260206004820152601f60248201527f5265656e7472616e637947756172643a207265656e7472616e742063616c6c00604482015260640161056b565b6002600655565b6001600160a01b038316610d725760405162461bcd60e51b815260206004820152602560248201527f45524332303a207472616e736665722066726f6d20746865207a65726f206164604482015264647265737360d81b606482015260840161056b565b6001600160a01b038216610dd45760405162461bcd60e51b815260206004820152602360248201527f45524332303a207472616e7366657220746f20746865207a65726f206164647260448201526265737360e81b606482015260840161056b565b6001600160a01b03831660009081526020819052604090205481811015610e4c5760405162461bcd60e51b815260206004820152602660248201527f45524332303a207472616e7366657220616d6f756e7420657863656564732062604482015265616c616e636560d01b606482015260840161056b565b6001600160a01b03848116600081815260208181526040808320878703905593871680835291849020805487019055925185815290927fddf252ad1be2c89b69c2b068fc378daa952ba7f163c4a11628f55a4df523b3ef910160405180910390a35b50505050565b6000610ec08484610ad2565b90506000198114610eae5781811015610f1b5760405162461bcd60e51b815260206004820152601d60248201527f45524332303a20696e73756666696369656e7420616c6c6f77616e6365000000604482015260640161056b565b610eae8484848403610b91565b6001600160a01b038216610f7e5760405162461bcd60e51b815260206004820152601f60248201527f45524332303a206d696e7420746f20746865207a65726f206164647265737300604482015260640161056b565b8060026000828254610f90919061125f565b90915550506001600160a01b038216600081815260208181526040808320805486019055518481527fddf252ad1be2c89b69c2b068fc378daa952ba7f163c4a11628f55a4df523b3ef9101610ac6565b6005546001600160a01b0316331461085c5760405162461bcd60e51b815260206004820181905260248201527f4f776e61626c653a2063616c6c6572206973206e6f7420746865206f776e6572604482015260640161056b565b600580546001600160a01b038381166001600160a01b0319831681179093556040519116919082907f8be0079c531659141344cd1fd0a4f28419497f9722a3daafe3b4186f6b6457e090600090a35050565b60006020808352835180602085015260005b818110156110ba5785810183015185820160400152820161109e565b506000604082860101526040601f19601f8301168501019250505092915050565b80356001600160a01b03811681146110f257600080fd5b919050565b6000806040838503121561110a57600080fd5b611113836110db565b946020939093013593505050565b60006020828403121561113357600080fd5b5035919050565b60008060006060848603121561114f57600080fd5b611158846110db565b9250611166602085016110db565b9150604084013590509250925092565b60006020828403121561118857600080fd5b611191826110db565b9392505050565b600080604083850312156111ab57600080fd5b50508035926020909101359150565b600080604083850312156111cd57600080fd5b6111d6836110db565b91506111e4602084016110db565b90509250929050565b600181811c9082168061120157607f821691505b60208210810361122157634e487b7160e01b600052602260045260246000fd5b50919050565b634e487b7160e01b600052601160045260246000fd5b60008261125a57634e487b7160e01b600052601260045260246000fd5b500490565b808201808211156104fa576104fa611227565b60006001820161128457611284611227565b506001019056fea26469706673582212200b597405e56c79ad0f290a54be66310dc71f34bf2dc5c3487b05c32120b313b764736f6c63430008160033",
  "linkReferences": {},
  "deployedLinkReferences": {}
}