{
  "_format": "hh-sol-artifact-1",
  "contractName": "ACToken",
  "sourceName": "contracts/Decommerce.sol",
  "abi": [
    {
      "inputs": [],
      "stateMutability": "nonpayable",
      "type": "constructor"
    },
    {
      "inputs": [],
      "name": "InvalidShortString",
      "type": "error"
    },
    {
      "inputs": [
        {
          "internalType": "string",
          "name": "str",
          "type": "string"
        }
      ],
      "name": "StringTooLong",
      "type": "error"
    },
    {
      "anonymous": false,
      "inputs": [
        {
          "indexed": true,
          "internalType": "address",
          "name": "owner",
          "type": "address"
        },
        {
          "indexed": true,
          "internalType": "address",
          "name": "spender",
          "type": "address"
        },
        {
          "indexed": false,
          "internalType": "uint256",
          "name": "value",
          "type": "uint256"
        }
      ],
      "name": "Approval",
      "type": "event"
    },
    {
      "anonymous": false,
      "inputs": [
        {
          "indexed": true,
          "internalType": "uint256",
          "name": "assetId",
          "type": "uint256"
        },
        {
          "indexed": true,
          "internalType": "address",
          "name": "buyer",
          "type": "address"
        },
        {
          "indexed": false,
          "internalType": "uint256",
          "name": "price",
          "type": "uint256"
        }
      ],
      "name": "AssetBought",
      "type": "event"
    },
    {
      "anonymous": false,
      "inputs": [
        {
          "indexed": true,
          "internalType": "uint256",
          "name": "assetId",
          "type": "uint256"
        },
        {
          "indexed": false,
          "internalType": "string",
          "name": "name",
          "type": "string"
        },
        {
          "indexed": false,
          "internalType": "string",
          "name": "description",
          "type": "string"
        },
        {
          "indexed": false,
          "internalType": "string",
          "name": "imageURL",
          "type": "string"
        },
        {
          "indexed": false,
          "internalType": "uint256",
          "name": "price",
          "type": "uint256"
        },
        {
          "indexed": true,
          "internalType": "address",
          "name": "owner",
          "type": "address"
        }
      ],
      "name": "AssetCreated",
      "type": "event"
    },
    {
      "anonymous": false,
      "inputs": [
        {
          "indexed": true,
          "internalType": "uint256",
          "name": "assetId",
          "type": "uint256"
        }
      ],
      "name": "AssetDeleted",
      "type": "event"
    },
    {
      "anonymous": false,
      "inputs": [
        {
          "indexed": true,
          "internalType": "uint256",
          "name": "assetId",
          "type": "uint256"
        },
        {
          "indexed": true,
          "internalType": "address",
          "name": "seller",
          "type": "address"
        },
        {
          "indexed": false,
          "internalType": "uint256",
          "name": "price",
          "type": "uint256"
        }
      ],
      "name": "AssetSold",
      "type": "event"
    },
    {
      "anonymous": false,
      "inputs": [
        {
          "indexed": true,
          "internalType": "uint256",
          "name": "assetId",
          "type": "uint256"
        },
        {
          "indexed": false,
          "internalType": "string",
          "name": "name",
          "type": "string"
        },
        {
          "indexed": false,
          "internalType": "string",
          "name": "description",
          "type": "string"
        },
        {
          "indexed": false,
          "internalType": "string",
          "name": "imageURL",
          "type": "string"
        },
        {
          "indexed": false,
          "internalType": "uint256",
          "name": "price",
          "type": "uint256"
        }
      ],
      "name": "AssetUpdated",
      "type": "event"
    },
    {
      "anonymous": false,
      "inputs": [],
      "name": "EIP712DomainChanged",
      "type": "event"
    },
    {
      "anonymous": false,
      "inputs": [
        {
          "indexed": true,
          "internalType": "address",
          "name": "previousOwner",
          "type": "address"
        },
        {
          "indexed": true,
          "internalType": "address",
          "name": "newOwner",
          "type": "address"
        }
      ],
      "name": "OwnershipTransferred",
      "type": "event"
    },
    {
      "anonymous": false,
      "inputs": [
        {
          "indexed": true,
          "internalType": "address",
          "name": "from",
          "type": "address"
        },
        {
          "indexed": true,
          "internalType": "address",
          "name": "to",
          "type": "address"
        },
        {
          "indexed": false,
          "internalType": "uint256",
          "name": "value",
          "type": "uint256"
        }
      ],
      "name": "Transfer",
      "type": "event"
    },
    {
      "inputs": [],
      "name": "DOMAIN_SEPARATOR",
      "outputs": [
        {
          "internalType": "bytes32",
          "name": "",
          "type": "bytes32"
        }
      ],
      "stateMutability": "view",
      "type": "function"
    },
    {
      "inputs": [
        {
          "internalType": "address",
          "name": "owner",
          "type": "address"
        },
        {
          "internalType": "address",
          "name": "spender",
          "type": "address"
        }
      ],
      "name": "allowance",
      "outputs": [
        {
          "internalType": "uint256",
          "name": "",
          "type": "uint256"
        }
      ],
      "stateMutability": "view",
      "type": "function"
    },
    {
      "inputs": [
        {
          "internalType": "address",
          "name": "spender",
          "type": "address"
        },
        {
          "internalType": "uint256",
          "name": "amount",
          "type": "uint256"
        }
      ],
      "name": "approve",
      "outputs": [
        {
          "internalType": "bool",
          "name": "",
          "type": "bool"
        }
      ],
      "stateMutability": "nonpayable",
      "type": "function"
    },
    {
      "inputs": [],
      "name": "assetCounter",
      "outputs": [
        {
          "internalType": "uint256",
          "name": "",
          "type": "uint256"
        }
      ],
      "stateMutability": "view",
      "type": "function"
    },
    {
      "inputs": [
        {
          "internalType": "uint256",
          "name": "",
          "type": "uint256"
        }
      ],
      "name": "assets",
      "outputs": [
        {
          "internalType": "uint256",
          "name": "id",
          "type": "uint256"
        },
        {
          "internalType": "string",
          "name": "name",
          "type": "string"
        },
        {
          "internalType": "string",
          "name": "description",
          "type": "string"
        },
        {
          "internalType": "string",
          "name": "imageURL",
          "type": "string"
        },
        {
          "internalType": "uint256",
          "name": "price",
          "type": "uint256"
        },
        {
          "internalType": "address",
          "name": "owner",
          "type": "address"
        }
      ],
      "stateMutability": "view",
      "type": "function"
    },
    {
      "inputs": [
        {
          "internalType": "address",
          "name": "account",
          "type": "address"
        }
      ],
      "name": "balanceOf",
      "outputs": [
        {
          "internalType": "uint256",
          "name": "",
          "type": "uint256"
        }
      ],
      "stateMutability": "view",
      "type": "function"
    },
    {
      "inputs": [
        {
          "internalType": "uint256",
          "name": "_assetId",
          "type": "uint256"
        }
      ],
      "name": "buyAsset",
      "outputs": [],
      "stateMutability": "nonpayable",
      "type": "function"
    },
    {
      "inputs": [
        {
          "internalType": "string",
          "name": "_name",
          "type": "string"
        },
        {
          "internalType": "string",
          "name": "_description",
          "type": "string"
        },
        {
          "internalType": "string",
          "name": "_imageURL",
          "type": "string"
        },
        {
          "internalType": "uint256",
          "name": "_price",
          "type": "uint256"
        }
      ],
      "name": "createAsset",
      "outputs": [],
      "stateMutability": "nonpayable",
      "type": "function"
    },
    {
      "inputs": [],
      "name": "decimals",
      "outputs": [
        {
          "internalType": "uint8",
          "name": "",
          "type": "uint8"
        }
      ],
      "stateMutability": "view",
      "type": "function"
    },
    {
      "inputs": [
        {
          "internalType": "address",
          "name": "spender",
          "type": "address"
        },
        {
          "internalType": "uint256",
          "name": "subtractedValue",
          "type": "uint256"
        }
      ],
      "name": "decreaseAllowance",
      "outputs": [
        {
          "internalType": "bool",
          "name": "",
          "type": "bool"
        }
      ],
      "stateMutability": "nonpayable",
      "type": "function"
    },
    {
      "inputs": [
        {
          "internalType": "uint256",
          "name": "_assetId",
          "type": "uint256"
        }
      ],
      "name": "deleteAsset",
      "outputs": [],
      "stateMutability": "nonpayable",
      "type": "function"
    },
    {
      "inputs": [],
      "name": "eip712Domain",
      "outputs": [
        {
          "internalType": "bytes1",
          "name": "fields",
          "type": "bytes1"
        },
        {
          "internalType": "string",
          "name": "name",
          "type": "string"
        },
        {
          "internalType": "string",
          "name": "version",
          "type": "string"
        },
        {
          "internalType": "uint256",
          "name": "chainId",
          "type": "uint256"
        },
        {
          "internalType": "address",
          "name": "verifyingContract",
          "type": "address"
        },
        {
          "internalType": "bytes32",
          "name": "salt",
          "type": "bytes32"
        },
        {
          "internalType": "uint256[]",
          "name": "extensions",
          "type": "uint256[]"
        }
      ],
      "stateMutability": "view",
      "type": "function"
    },
    {
      "inputs": [
        {
          "internalType": "address",
          "name": "spender",
          "type": "address"
        },
        {
          "internalType": "uint256",
          "name": "addedValue",
          "type": "uint256"
        }
      ],
      "name": "increaseAllowance",
      "outputs": [
        {
          "internalType": "bool",
          "name": "",
          "type": "bool"
        }
      ],
      "stateMutability": "nonpayable",
      "type": "function"
    },
    {
      "inputs": [
        {
          "internalType": "address",
          "name": "account",
          "type": "address"
        },
        {
          "internalType": "uint256",
          "name": "amount",
          "type": "uint256"
        }
      ],
      "name": "mint",
      "outputs": [],
      "stateMutability": "nonpayable",
      "type": "function"
    },
    {
      "inputs": [],
      "name": "name",
      "outputs": [
        {
          "internalType": "string",
          "name": "",
          "type": "string"
        }
      ],
      "stateMutability": "view",
      "type": "function"
    },
    {
      "inputs": [
        {
          "internalType": "address",
          "name": "owner",
          "type": "address"
        }
      ],
      "name": "nonces",
      "outputs": [
        {
          "internalType": "uint256",
          "name": "",
          "type": "uint256"
        }
      ],
      "stateMutability": "view",
      "type": "function"
    },
    {
      "inputs": [],
      "name": "owner",
      "outputs": [
        {
          "internalType": "address",
          "name": "",
          "type": "address"
        }
      ],
      "stateMutability": "view",
      "type": "function"
    },
    {
      "inputs": [
        {
          "internalType": "address",
          "name": "owner",
          "type": "address"
        },
        {
          "internalType": "address",
          "name": "spender",
          "type": "address"
        },
        {
          "internalType": "uint256",
          "name": "value",
          "type": "uint256"
        },
        {
          "internalType": "uint256",
          "name": "deadline",
          "type": "uint256"
        },
        {
          "internalType": "uint8",
          "name": "v",
          "type": "uint8"
        },
        {
          "internalType": "bytes32",
          "name": "r",
          "type": "bytes32"
        },
        {
          "internalType": "bytes32",
          "name": "s",
          "type": "bytes32"
        }
      ],
      "name": "permit",
      "outputs": [],
      "stateMutability": "nonpayable",
      "type": "function"
    },
    {
      "inputs": [],
      "name": "purchaseTokens",
      "outputs": [],
      "stateMutability": "payable",
      "type": "function"
    },
    {
      "inputs": [],
      "name": "renounceOwnership",
      "outputs": [],
      "stateMutability": "nonpayable",
      "type": "function"
    },
    {
      "inputs": [
        {
          "internalType": "uint256",
          "name": "_assetId",
          "type": "uint256"
        },
        {
          "internalType": "uint256",
          "name": "_price",
          "type": "uint256"
        }
      ],
      "name": "sellAsset",
      "outputs": [],
      "stateMutability": "nonpayable",
      "type": "function"
    },
    {
      "inputs": [],
      "name": "symbol",
      "outputs": [
        {
          "internalType": "string",
          "name": "",
          "type": "string"
        }
      ],
      "stateMutability": "view",
      "type": "function"
    },
    {
      "inputs": [],
      "name": "totalSupply",
      "outputs": [
        {
          "internalType": "uint256",
          "name": "",
          "type": "uint256"
        }
      ],
      "stateMutability": "view",
      "type": "function"
    },
    {
      "inputs": [
        {
          "internalType": "address",
          "name": "to",
          "type": "address"
        },
        {
          "internalType": "uint256",
          "name": "amount",
          "type": "uint256"
        }
      ],
      "name": "transfer",
      "outputs": [
        {
          "internalType": "bool",
          "name": "",
          "type": "bool"
        }
      ],
      "stateMutability": "nonpayable",
      "type": "function"
    },
    {
      "inputs": [
        {
          "internalType": "address",
          "name": "from",
          "type": "address"
        },
        {
          "internalType": "address",
          "name": "to",
          "type": "address"
        },
        {
          "internalType": "uint256",
          "name": "amount",
          "type": "uint256"
        }
      ],
      "name": "transferFrom",
      "outputs": [
        {
          "internalType": "bool",
          "name": "",
          "type": "bool"
        }
      ],
      "stateMutability": "nonpayable",
      "type": "function"
    },
    {
      "inputs": [
        {
          "internalType": "address",
          "name": "newOwner",
          "type": "address"
        }
      ],
      "name": "transferOwnership",
      "outputs": [],
      "stateMutability": "nonpayable",
      "type": "function"
    },
    {
      "inputs": [
        {
          "internalType": "uint256",
          "name": "_assetId",
          "type": "uint256"
        },
        {
          "internalType": "string",
          "name": "_name",
          "type": "string"
        },
        {
          "internalType": "string",
          "name": "_description",
          "type": "string"
        },
        {
          "internalType": "string",
          "name": "_imageURL",
          "type": "string"
        },
        {
          "internalType": "uint256",
          "name": "_price",
          "type": "uint256"
        }
      ],
      "name": "updateAsset",
      "outputs": [],
      "stateMutability": "nonpayable",
      "type": "function"
    }
  ],
  "bytecode": "0x6101606040523480156200001257600080fd5b506040518060400160405280600881526020016720a1902a37b5b2b760c11b81525080604051806040016040528060018152602001603160f81b8152506040518060400160405280600881526020016720a1902a37b5b2b760c11b815250604051806040016040528060038152602001621050d560ea1b81525081600390816200009d91906200030c565b506004620000ac82826200030c565b505050620000c9620000c36200018a60201b60201c565b6200018e565b620000d6826006620001e0565b61012052620000e7816007620001e0565b61014052815160208084019190912060e052815190820120610100524660a0526200017560e05161010051604080517f8b73c3c69bb8fe3d512ecc4cf759cc79239f7b179b0ffacaa9a75d522b39400f60208201529081019290925260608201524660808201523060a082015260009060c00160405160208183030381529060405280519060200120905090565b60805250503060c052506001600a556200044e565b3390565b600580546001600160a01b038381166001600160a01b0319831681179093556040519116919082907f8be0079c531659141344cd1fd0a4f28419497f9722a3daafe3b4186f6b6457e090600090a35050565b60006020835110156200020057620001f88362000219565b905062000213565b816200020d84826200030c565b5060ff90505b92915050565b600080829050601f8151111562000250578260405163305a27a960e01b8152600401620002479190620003d8565b60405180910390fd5b80516200025d8262000429565b179392505050565b634e487b7160e01b600052604160045260246000fd5b600181811c908216806200029057607f821691505b602082108103620002b157634e487b7160e01b600052602260045260246000fd5b50919050565b601f82111562000307576000816000526020600020601f850160051c81016020861015620002e25750805b601f850160051c820191505b818110156200030357828155600101620002ee565b5050505b505050565b81516001600160401b0381111562000328576200032862000265565b62000340816200033984546200027b565b84620002b7565b602080601f8311600181146200037857600084156200035f5750858301515b600019600386901b1c1916600185901b17855562000303565b600085815260208120601f198616915b82811015620003a95788860151825594840194600190910190840162000388565b5085821015620003c85787850151600019600388901b60f8161c191681555b5050505050600190811b01905550565b60006020808352835180602085015260005b818110156200040857858101830151858201604001528201620003ea565b506000604082860101526040601f19601f8301168501019250505092915050565b80516020808301519190811015620002b15760001960209190910360031b1b16919050565b60805160a05160c05160e051610100516101205161014051612349620004a96000396000610b1401526000610ae90152600061173f01526000611717015260006116720152600061169c015260006116c601526123496000f3fe60806040526004361061019c5760003560e01c8063715018a6116100ec578063a9059cbb1161008a578063cf35bdd011610064578063cf35bdd01461047c578063d505accf146104ae578063dd62ed3e146104ce578063f2fde38b146104ee57600080fd5b8063a9059cbb1461041c578063bbc263fa1461043c578063c687857c1461045c57600080fd5b806384b0196e116100c657806384b0196e146103975780638da5cb5b146103bf57806395d89b41146103e7578063a457c2d7146103fc57600080fd5b8063715018a6146103425780637eb79b53146103575780637ecebe001461037757600080fd5b80633290ce2911610159578063395093511161013357806339509351146102b657806340c10f19146102d65780634b918786146102f657806370a082311461030c57600080fd5b80633290ce29146102795780633644e51514610281578063369d81381461029657600080fd5b806306fdde03146101a1578063095ea7b3146101cc578063110d35b8146101fc57806318160ddd1461021e57806323b872dd1461023d578063313ce5671461025d575b600080fd5b3480156101ad57600080fd5b506101b661050e565b6040516101c39190611c72565b60405180910390f35b3480156101d857600080fd5b506101ec6101e7366004611ca8565b6105a0565b60405190151581526020016101c3565b34801561020857600080fd5b5061021c610217366004611cd2565b6105ba565b005b34801561022a57600080fd5b506002545b6040519081526020016101c3565b34801561024957600080fd5b506101ec610258366004611ceb565b6107a4565b34801561026957600080fd5b50604051601281526020016101c3565b61021c6107c8565b34801561028d57600080fd5b5061022f610837565b3480156102a257600080fd5b5061021c6102b1366004611dca565b610846565b3480156102c257600080fd5b506101ec6102d1366004611ca8565b610979565b3480156102e257600080fd5b5061021c6102f1366004611ca8565b61099b565b34801561030257600080fd5b5061022f600c5481565b34801561031857600080fd5b5061022f610327366004611e5a565b6001600160a01b031660009081526020819052604090205490565b34801561034e57600080fd5b5061021c6109b1565b34801561036357600080fd5b5061021c610372366004611cd2565b6109c5565b34801561038357600080fd5b5061022f610392366004611e5a565b610abd565b3480156103a357600080fd5b506103ac610adb565b6040516101c39796959493929190611e75565b3480156103cb57600080fd5b506005546040516001600160a01b0390911681526020016101c3565b3480156103f357600080fd5b506101b6610b64565b34801561040857600080fd5b506101ec610417366004611ca8565b610b73565b34801561042857600080fd5b506101ec610437366004611ca8565b610bee565b34801561044857600080fd5b5061021c610457366004611f0e565b610bfc565b34801561046857600080fd5b5061021c610477366004611f30565b610cf3565b34801561048857600080fd5b5061049c610497366004611cd2565b610e37565b6040516101c396959493929190611fca565b3480156104ba57600080fd5b5061021c6104c936600461202d565b61100e565b3480156104da57600080fd5b5061022f6104e93660046120a0565b611172565b3480156104fa57600080fd5b5061021c610509366004611e5a565b61119d565b60606003805461051d906120d3565b80601f0160208091040260200160405190810160405280929190818152602001828054610549906120d3565b80156105965780601f1061056b57610100808354040283529160200191610596565b820191906000526020600020905b81548152906001019060200180831161057957829003601f168201915b5050505050905090565b6000336105ae818585611213565b60019150505b92915050565b6105c2611337565b6000818152600b6020526040902060050154336001600160a01b03909116036106325760405162461bcd60e51b815260206004820152601960248201527f43616e6e6f742062757920796f7572206f776e2061737365740000000000000060448201526064015b60405180910390fd5b6000818152600b602052604090206004015461069e5760405162461bcd60e51b815260206004820152602560248201527f4173736574207072696365206d7573742062652067726561746572207468616e604482015264207a65726f60d81b6064820152608401610629565b6000818152600b6020908152604080832060040154338452918390529091205410156107055760405162461bcd60e51b8152602060048201526016602482015275496e73756666696369656e7420414320746f6b656e7360501b6044820152606401610629565b6000818152600b6020526040902060058101546004909101546107359133916001600160a01b0390911690611390565b6000818152600b60209081526040918290206005810180546001600160a01b0319163390811790915560049091015492519283529183917f03df89dfb876aa84df9da92f20f01a759db288978046b346c2e42daf1f5355ed910160405180910390a36107a16001600a55565b50565b6000336107b2858285611532565b6107bd858585611390565b506001949350505050565b600034116108185760405162461bcd60e51b815260206004820152601960248201527f53656e642045544820746f2067657420414320546f6b656e73000000000000006044820152606401610629565b600061082b66038d7ea4c680003461211d565b90506107a133826115a6565b6000610841611665565b905090565b600081116108665760405162461bcd60e51b81526004016106299061213f565b600c805490600061087683612176565b90915550506040805160c081018252600c54808252602080830188815283850188905260608401879052608084018690523360a08501526000928352600b90915292902081518155915190919060018201906108d290826121df565b50604082015160028201906108e790826121df565b50606082015160038201906108fc90826121df565b506080820151600482015560a090910151600590910180546001600160a01b0319166001600160a01b03909216919091179055600c546040513391907f7b4721be360802cf1312a3ff02a71e561724011eea871238975c8ebdd3c6ec4e9061096b90889088908890889061229f565b60405180910390a350505050565b6000336105ae81858561098c8383611172565b61099691906122ea565b611213565b6109a3611790565b6109ad82826115a6565b5050565b6109b9611790565b6109c360006117ea565b565b6000818152600b60205260409020600501546001600160a01b03163314610a3a5760405162461bcd60e51b815260206004820152602360248201527f4f6e6c7920746865206f776e65722063616e2064656c657465207468652061736044820152621cd95d60ea1b6064820152608401610629565b6000818152600b6020526040812081815590610a596001830182611bde565b610a67600283016000611bde565b610a75600383016000611bde565b50600060048201819055600590910180546001600160a01b031916905560405182917fa688c45cd59c2527ae60c477de2510cf8cec40aa54def51bae6c2725468871a291a250565b6001600160a01b0381166000908152600860205260408120546105b4565b600060608082808083610b0f7f0000000000000000000000000000000000000000000000000000000000000000600661183c565b610b3a7f0000000000000000000000000000000000000000000000000000000000000000600761183c565b60408051600080825260208201909252600f60f81b9b939a50919850469750309650945092509050565b60606004805461051d906120d3565b60003381610b818286611172565b905083811015610be15760405162461bcd60e51b815260206004820152602560248201527f45524332303a2064656372656173656420616c6c6f77616e63652062656c6f77604482015264207a65726f60d81b6064820152608401610629565b6107bd8286868403611213565b6000336105ae818585611390565b610c04611337565b6000828152600b60205260409020600501546001600160a01b03163314610c775760405162461bcd60e51b815260206004820152602160248201527f4f6e6c7920746865206f776e65722063616e2073656c6c2074686520617373656044820152601d60fa1b6064820152608401610629565b60008111610c975760405162461bcd60e51b81526004016106299061213f565b6000828152600b60205260409081902060040182905551339083907f292a715744610be2d2c003ffa789368466ca91526353f24503687fb495dca86990610ce19085815260200190565b60405180910390a36109ad6001600a55565b6000858152600b60205260409020600501546001600160a01b03163314610d685760405162461bcd60e51b815260206004820152602360248201527f4f6e6c7920746865206f776e65722063616e20757064617465207468652061736044820152621cd95d60ea1b6064820152608401610629565b60008111610d885760405162461bcd60e51b81526004016106299061213f565b6000858152600b60205260409020600101610da385826121df565b506000858152600b60205260409020600201610dbf84826121df565b506000858152600b60205260409020600301610ddb83826121df565b506000858152600b6020526040908190206004018290555185907f6e9afecc8d15a21c2fa33422b5ec8d9012d2b03f9433e9adaa7782ef902f5d9e90610e2890879087908790879061229f565b60405180910390a25050505050565b600b6020526000908152604090208054600182018054919291610e59906120d3565b80601f0160208091040260200160405190810160405280929190818152602001828054610e85906120d3565b8015610ed25780601f10610ea757610100808354040283529160200191610ed2565b820191906000526020600020905b815481529060010190602001808311610eb557829003601f168201915b505050505090806002018054610ee7906120d3565b80601f0160208091040260200160405190810160405280929190818152602001828054610f13906120d3565b8015610f605780601f10610f3557610100808354040283529160200191610f60565b820191906000526020600020905b815481529060010190602001808311610f4357829003601f168201915b505050505090806003018054610f75906120d3565b80601f0160208091040260200160405190810160405280929190818152602001828054610fa1906120d3565b8015610fee5780601f10610fc357610100808354040283529160200191610fee565b820191906000526020600020905b815481529060010190602001808311610fd157829003601f168201915b5050505060048301546005909301549192916001600160a01b0316905086565b8342111561105e5760405162461bcd60e51b815260206004820152601d60248201527f45524332305065726d69743a206578706972656420646561646c696e650000006044820152606401610629565b60007f6e71edae12b1b97f4d1f60370fef10105fa2faae0126114a169c64845d6126c988888861108d8c6118e7565b6040805160208101969096526001600160a01b0394851690860152929091166060840152608083015260a082015260c0810186905260e00160405160208183030381529060405280519060200120905060006110e88261190f565b905060006110f88287878761193c565b9050896001600160a01b0316816001600160a01b03161461115b5760405162461bcd60e51b815260206004820152601e60248201527f45524332305065726d69743a20696e76616c6964207369676e617475726500006044820152606401610629565b6111668a8a8a611213565b50505050505050505050565b6001600160a01b03918216600090815260016020908152604080832093909416825291909152205490565b6111a5611790565b6001600160a01b03811661120a5760405162461bcd60e51b815260206004820152602660248201527f4f776e61626c653a206e6577206f776e657220697320746865207a65726f206160448201526564647265737360d01b6064820152608401610629565b6107a1816117ea565b6001600160a01b0383166112755760405162461bcd60e51b8152602060048201526024808201527f45524332303a20617070726f76652066726f6d20746865207a65726f206164646044820152637265737360e01b6064820152608401610629565b6001600160a01b0382166112d65760405162461bcd60e51b815260206004820152602260248201527f45524332303a20617070726f766520746f20746865207a65726f206164647265604482015261737360f01b6064820152608401610629565b6001600160a01b0383811660008181526001602090815260408083209487168084529482529182902085905590518481527f8c5be1e5ebec7d5bd14f71427d1e84f3dd0314c0f7b2291e5b200ac8c7c3b925910160405180910390a3505050565b6002600a54036113895760405162461bcd60e51b815260206004820152601f60248201527f5265656e7472616e637947756172643a207265656e7472616e742063616c6c006044820152606401610629565b6002600a55565b6001600160a01b0383166113f45760405162461bcd60e51b815260206004820152602560248201527f45524332303a207472616e736665722066726f6d20746865207a65726f206164604482015264647265737360d81b6064820152608401610629565b6001600160a01b0382166114565760405162461bcd60e51b815260206004820152602360248201527f45524332303a207472616e7366657220746f20746865207a65726f206164647260448201526265737360e81b6064820152608401610629565b6001600160a01b038316600090815260208190526040902054818110156114ce5760405162461bcd60e51b815260206004820152602660248201527f45524332303a207472616e7366657220616d6f756e7420657863656564732062604482015265616c616e636560d01b6064820152608401610629565b6001600160a01b03848116600081815260208181526040808320878703905593871680835291849020805487019055925185815290927fddf252ad1be2c89b69c2b068fc378daa952ba7f163c4a11628f55a4df523b3ef910161096b565b50505050565b600061153e8484611172565b9050600019811461152c57818110156115995760405162461bcd60e51b815260206004820152601d60248201527f45524332303a20696e73756666696369656e7420616c6c6f77616e63650000006044820152606401610629565b61152c8484848403611213565b6001600160a01b0382166115fc5760405162461bcd60e51b815260206004820152601f60248201527f45524332303a206d696e7420746f20746865207a65726f2061646472657373006044820152606401610629565b806002600082825461160e91906122ea565b90915550506001600160a01b038216600081815260208181526040808320805486019055518481527fddf252ad1be2c89b69c2b068fc378daa952ba7f163c4a11628f55a4df523b3ef910160405180910390a35050565b6000306001600160a01b037f0000000000000000000000000000000000000000000000000000000000000000161480156116be57507f000000000000000000000000000000000000000000000000000000000000000046145b156116e857507f000000000000000000000000000000000000000000000000000000000000000090565b610841604080517f8b73c3c69bb8fe3d512ecc4cf759cc79239f7b179b0ffacaa9a75d522b39400f60208201527f0000000000000000000000000000000000000000000000000000000000000000918101919091527f000000000000000000000000000000000000000000000000000000000000000060608201524660808201523060a082015260009060c00160405160208183030381529060405280519060200120905090565b6005546001600160a01b031633146109c35760405162461bcd60e51b815260206004820181905260248201527f4f776e61626c653a2063616c6c6572206973206e6f7420746865206f776e65726044820152606401610629565b600580546001600160a01b038381166001600160a01b0319831681179093556040519116919082907f8be0079c531659141344cd1fd0a4f28419497f9722a3daafe3b4186f6b6457e090600090a35050565b606060ff83146118565761184f83611969565b90506105b4565b818054611862906120d3565b80601f016020809104026020016040519081016040528092919081815260200182805461188e906120d3565b80156118db5780601f106118b0576101008083540402835291602001916118db565b820191906000526020600020905b8154815290600101906020018083116118be57829003601f168201915b505050505090506105b4565b6001600160a01b03811660009081526008602052604090208054600181018255905b50919050565b60006105b461191c611665565b8360405161190160f01b8152600281019290925260228201526042902090565b600080600061194d878787876119a8565b9150915061195a81611a6c565b5095945050505050565b505050565b6060600061197683611bb6565b604080516020808252818301909252919250600091906020820181803683375050509182525060208101929092525090565b6000807f7fffffffffffffffffffffffffffffff5d576e7357a4501ddfe92f46681b20a08311156119df5750600090506003611a63565b6040805160008082526020820180845289905260ff881692820192909252606081018690526080810185905260019060a0016020604051602081039080840390855afa158015611a33573d6000803e3d6000fd5b5050604051601f1901519150506001600160a01b038116611a5c57600060019250925050611a63565b9150600090505b94509492505050565b6000816004811115611a8057611a806122fd565b03611a885750565b6001816004811115611a9c57611a9c6122fd565b03611ae95760405162461bcd60e51b815260206004820152601860248201527f45434453413a20696e76616c6964207369676e617475726500000000000000006044820152606401610629565b6002816004811115611afd57611afd6122fd565b03611b4a5760405162461bcd60e51b815260206004820152601f60248201527f45434453413a20696e76616c6964207369676e6174757265206c656e677468006044820152606401610629565b6003816004811115611b5e57611b5e6122fd565b036107a15760405162461bcd60e51b815260206004820152602260248201527f45434453413a20696e76616c6964207369676e6174757265202773272076616c604482015261756560f01b6064820152608401610629565b600060ff8216601f8111156105b457604051632cd44ac360e21b815260040160405180910390fd5b508054611bea906120d3565b6000825580601f10611bfa575050565b601f0160209004906000526020600020908101906107a191905b80821115611c285760008155600101611c14565b5090565b6000815180845260005b81811015611c5257602081850181015186830182015201611c36565b506000602082860101526020601f19601f83011685010191505092915050565b602081526000611c856020830184611c2c565b9392505050565b80356001600160a01b0381168114611ca357600080fd5b919050565b60008060408385031215611cbb57600080fd5b611cc483611c8c565b946020939093013593505050565b600060208284031215611ce457600080fd5b5035919050565b600080600060608486031215611d0057600080fd5b611d0984611c8c565b9250611d1760208501611c8c565b9150604084013590509250925092565b634e487b7160e01b600052604160045260246000fd5b600082601f830112611d4e57600080fd5b813567ffffffffffffffff80821115611d6957611d69611d27565b604051601f8301601f19908116603f01168101908282118183101715611d9157611d91611d27565b81604052838152866020858801011115611daa57600080fd5b836020870160208301376000602085830101528094505050505092915050565b60008060008060808587031215611de057600080fd5b843567ffffffffffffffff80821115611df857600080fd5b611e0488838901611d3d565b95506020870135915080821115611e1a57600080fd5b611e2688838901611d3d565b94506040870135915080821115611e3c57600080fd5b50611e4987828801611d3d565b949793965093946060013593505050565b600060208284031215611e6c57600080fd5b611c8582611c8c565b60ff60f81b881681526000602060e06020840152611e9660e084018a611c2c565b8381036040850152611ea8818a611c2c565b606085018990526001600160a01b038816608086015260a0850187905284810360c08601528551808252602080880193509091019060005b81811015611efc57835183529284019291840191600101611ee0565b50909c9b505050505050505050505050565b60008060408385031215611f2157600080fd5b50508035926020909101359150565b600080600080600060a08688031215611f4857600080fd5b85359450602086013567ffffffffffffffff80821115611f6757600080fd5b611f7389838a01611d3d565b95506040880135915080821115611f8957600080fd5b611f9589838a01611d3d565b94506060880135915080821115611fab57600080fd5b50611fb888828901611d3d565b95989497509295608001359392505050565b86815260c060208201526000611fe360c0830188611c2c565b8281036040840152611ff58188611c2c565b905082810360608401526120098187611c2c565b608084019590955250506001600160a01b039190911660a090910152949350505050565b600080600080600080600060e0888a03121561204857600080fd5b61205188611c8c565b965061205f60208901611c8c565b95506040880135945060608801359350608088013560ff8116811461208357600080fd5b9699959850939692959460a0840135945060c09093013592915050565b600080604083850312156120b357600080fd5b6120bc83611c8c565b91506120ca60208401611c8c565b90509250929050565b600181811c908216806120e757607f821691505b60208210810361190957634e487b7160e01b600052602260045260246000fd5b634e487b7160e01b600052601160045260246000fd5b60008261213a57634e487b7160e01b600052601260045260246000fd5b500490565b6020808252601f908201527f5072696365206d7573742062652067726561746572207468616e207a65726f00604082015260600190565b60006001820161218857612188612107565b5060010190565b601f821115611964576000816000526020600020601f850160051c810160208610156121b85750805b601f850160051c820191505b818110156121d7578281556001016121c4565b505050505050565b815167ffffffffffffffff8111156121f9576121f9611d27565b61220d8161220784546120d3565b8461218f565b602080601f831160018114612242576000841561222a5750858301515b600019600386901b1c1916600185901b1785556121d7565b600085815260208120601f198616915b8281101561227157888601518255948401946001909101908401612252565b508582101561228f5787850151600019600388901b60f8161c191681555b5050505050600190811b01905550565b6080815260006122b26080830187611c2c565b82810360208401526122c48187611c2c565b905082810360408401526122d88186611c2c565b91505082606083015295945050505050565b808201808211156105b4576105b4612107565b634e487b7160e01b600052602160045260246000fdfea2646970667358221220a3c0d9c64029cc84c3a947bdd0ee08eff674ed3b23422e4bd6de268060a0265464736f6c63430008160033",
  "linkReferences": {},
  "deployedLinkReferences": {}
}